{"abi":[{"type":"constructor","inputs":[],"stateMutability":"nonpayable"},{"type":"function","name":"allowance","inputs":[{"name":"owner","type":"address","internalType":"address"},{"name":"spender","type":"address","internalType":"address"}],"outputs":[{"name":"","type":"uint256","internalType":"uint256"}],"stateMutability":"view"},{"type":"function","name":"approve","inputs":[{"name":"spender","type":"address","internalType":"address"},{"name":"amount","type":"uint256","internalType":"uint256"}],"outputs":[{"name":"","type":"bool","internalType":"bool"}],"stateMutability":"nonpayable"},{"type":"function","name":"balanceOf","inputs":[{"name":"account","type":"address","internalType":"address"}],"outputs":[{"name":"","type":"uint256","internalType":"uint256"}],"stateMutability":"view"},{"type":"function","name":"burn","inputs":[{"name":"account","type":"address","internalType":"address"},{"name":"value","type":"uint256","internalType":"uint256"}],"outputs":[],"stateMutability":"nonpayable"},{"type":"function","name":"decimals","inputs":[],"outputs":[{"name":"","type":"uint8","internalType":"uint8"}],"stateMutability":"view"},{"type":"function","name":"name","inputs":[],"outputs":[{"name":"","type":"string","internalType":"string"}],"stateMutability":"view"},{"type":"function","name":"symbol","inputs":[],"outputs":[{"name":"","type":"string","internalType":"string"}],"stateMutability":"view"},{"type":"function","name":"totalSupply","inputs":[],"outputs":[{"name":"","type":"uint256","internalType":"uint256"}],"stateMutability":"view"},{"type":"function","name":"transfer","inputs":[{"name":"to","type":"address","internalType":"address"},{"name":"value","type":"uint256","internalType":"uint256"}],"outputs":[{"name":"","type":"bool","internalType":"bool"}],"stateMutability":"nonpayable"},{"type":"function","name":"transferFrom","inputs":[{"name":"from","type":"address","internalType":"address"},{"name":"to","type":"address","internalType":"address"},{"name":"amount","type":"uint256","internalType":"uint256"}],"outputs":[{"name":"","type":"bool","internalType":"bool"}],"stateMutability":"nonpayable"},{"type":"event","name":"Approval","inputs":[{"name":"owner","type":"address","indexed":true,"internalType":"address"},{"name":"spender","type":"address","indexed":true,"internalType":"address"},{"name":"value","type":"uint256","indexed":false,"internalType":"uint256"}],"anonymous":false},{"type":"event","name":"Transfer","inputs":[{"name":"from","type":"address","indexed":true,"internalType":"address"},{"name":"to","type":"address","indexed":true,"internalType":"address"},{"name":"value","type":"uint256","indexed":false,"internalType":"uint256"}],"anonymous":false}],"bytecode":{"object":"0x6080604052601260025f6101000a81548160ff021916908360ff16021790555034801561002a575f5ffd5b506040518060400160405280600b81526020017f4275676779546f6b656e330000000000000000000000000000000000000000008152505f908161006e91906103e4565b506040518060400160405280600481526020017f4255473300000000000000000000000000000000000000000000000000000000815250600190816100b391906103e4565b506100ce3369d3c21bcecceda10000006100d360201b60201c565b61053b565b8060045f8473ffffffffffffffffffffffffffffffffffffffff1673ffffffffffffffffffffffffffffffffffffffff1681526020019081526020015f205f82825461011f91906104e0565b925050819055508060035f82825461013791906104e0565b925050819055508173ffffffffffffffffffffffffffffffffffffffff165f73ffffffffffffffffffffffffffffffffffffffff167fddf252ad1be2c89b69c2b068fc378daa952ba7f163c4a11628f55a4df523b3ef8360405161019b9190610522565b60405180910390a35050565b5f81519050919050565b7f4e487b71000000000000000000000000000000000000000000000000000000005f52604160045260245ffd5b7f4e487b71000000000000000000000000000000000000000000000000000000005f52602260045260245ffd5b5f600282049050600182168061022257607f821691505b602082108103610235576102346101de565b5b50919050565b5f819050815f5260205f209050919050565b5f6020601f8301049050919050565b5f82821b905092915050565b5f600883026102977fffffffffffffffffffffffffffffffffffffffffffffffffffffffffffffffff8261025c565b6102a1868361025c565b95508019841693508086168417925050509392505050565b5f819050919050565b5f819050919050565b5f6102e56102e06102db846102b9565b6102c2565b6102b9565b9050919050565b5f819050919050565b6102fe836102cb565b61031261030a826102ec565b848454610268565b825550505050565b5f5f905090565b61032961031a565b6103348184846102f5565b505050565b5b818110156103575761034c5f82610321565b60018101905061033a565b5050565b601f82111561039c5761036d8161023b565b6103768461024d565b81016020851015610385578190505b6103996103918561024d565b830182610339565b50505b505050565b5f82821c905092915050565b5f6103bc5f19846008026103a1565b1980831691505092915050565b5f6103d483836103ad565b9150826002028217905092915050565b6103ed826101a7565b67ffffffffffffffff811115610406576104056101b1565b5b610410825461020b565b61041b82828561035b565b5f60209050601f83116001811461044c575f841561043a578287015190505b61044485826103c9565b8655506104ab565b601f19841661045a8661023b565b5f5b828110156104815784890151825560018201915060208501945060208101905061045c565b8683101561049e578489015161049a601f8916826103ad565b8355505b6001600288020188555050505b505050505050565b7f4e487b71000000000000000000000000000000000000000000000000000000005f52601160045260245ffd5b5f6104ea826102b9565b91506104f5836102b9565b925082820190508082111561050d5761050c6104b3565b5b92915050565b61051c816102b9565b82525050565b5f6020820190506105355f830184610513565b92915050565b611156806105485f395ff3fe608060405234801561000f575f5ffd5b506004361061009c575f3560e01c806370a082311161006457806370a082311461015a57806395d89b411461018a5780639dc29fac146101a8578063a9059cbb146101c4578063dd62ed3e146101f45761009c565b806306fdde03146100a0578063095ea7b3146100be57806318160ddd146100ee57806323b872dd1461010c578063313ce5671461013c575b5f5ffd5b6100a8610224565b6040516100b59190610b63565b60405180910390f35b6100d860048036038101906100d39190610c14565b6102af565b6040516100e59190610c6c565b60405180910390f35b6100f66102c5565b6040516101039190610c94565b60405180910390f35b61012660048036038101906101219190610cad565b6102ce565b6040516101339190610c6c565b60405180910390f35b6101446102f0565b6040516101519190610d18565b60405180910390f35b610174600480360381019061016f9190610d31565b610302565b6040516101819190610c94565b60405180910390f35b610192610348565b60405161019f9190610b63565b60405180910390f35b6101c260048036038101906101bd9190610c14565b6103d4565b005b6101de60048036038101906101d99190610c14565b610595565b6040516101eb9190610c6c565b60405180910390f35b61020e60048036038101906102099190610d5c565b6105ab565b60405161021b9190610c94565b60405180910390f35b5f805461023090610dc7565b80601f016020809104026020016040519081016040528092919081815260200182805461025c90610dc7565b80156102a75780601f1061027e576101008083540402835291602001916102a7565b820191905f5260205f20905b81548152906001019060200180831161028a57829003601f168201915b505050505081565b5f6102bb33848461062d565b6001905092915050565b5f600354905090565b5f6102da8433846107f0565b6102e58484846108f6565b600190509392505050565b60025f9054906101000a900460ff1681565b5f60045f8373ffffffffffffffffffffffffffffffffffffffff1673ffffffffffffffffffffffffffffffffffffffff1681526020019081526020015f20549050919050565b6001805461035590610dc7565b80601f016020809104026020016040519081016040528092919081815260200182805461038190610dc7565b80156103cc5780601f106103a3576101008083540402835291602001916103cc565b820191905f5260205f20905b8154815290600101906020018083116103af57829003601f168201915b505050505081565b5f73ffffffffffffffffffffffffffffffffffffffff168273ffffffffffffffffffffffffffffffffffffffff1603610442576040517f08c379a000000000000000000000000000000000000000000000000000000000815260040161043990610e41565b60405180910390fd5b5f60045f8473ffffffffffffffffffffffffffffffffffffffff1673ffffffffffffffffffffffffffffffffffffffff1681526020019081526020015f20549050818110156104c6576040517f08c379a00000000000000000000000000000000000000000000000000000000081526004016104bd90610ea9565b60405180910390fd5b81816104d29190610ef4565b60045f8573ffffffffffffffffffffffffffffffffffffffff1673ffffffffffffffffffffffffffffffffffffffff1681526020019081526020015f20819055508160035f8282546105249190610ef4565b925050819055505f73ffffffffffffffffffffffffffffffffffffffff168373ffffffffffffffffffffffffffffffffffffffff167fddf252ad1be2c89b69c2b068fc378daa952ba7f163c4a11628f55a4df523b3ef846040516105889190610c94565b60405180910390a3505050565b5f6105a13384846108f6565b6001905092915050565b5f60055f8473ffffffffffffffffffffffffffffffffffffffff1673ffffffffffffffffffffffffffffffffffffffff1681526020019081526020015f205f8373ffffffffffffffffffffffffffffffffffffffff1673ffffffffffffffffffffffffffffffffffffffff1681526020019081526020015f2054905092915050565b5f73ffffffffffffffffffffffffffffffffffffffff168373ffffffffffffffffffffffffffffffffffffffff160361069b576040517f08c379a000000000000000000000000000000000000000000000000000000000815260040161069290610f71565b60405180910390fd5b5f73ffffffffffffffffffffffffffffffffffffffff168273ffffffffffffffffffffffffffffffffffffffff1603610709576040517f08c379a000000000000000000000000000000000000000000000000000000000815260040161070090610fd9565b60405180910390fd5b8060055f8573ffffffffffffffffffffffffffffffffffffffff1673ffffffffffffffffffffffffffffffffffffffff1681526020019081526020015f205f8473ffffffffffffffffffffffffffffffffffffffff1673ffffffffffffffffffffffffffffffffffffffff1681526020019081526020015f20819055508173ffffffffffffffffffffffffffffffffffffffff168373ffffffffffffffffffffffffffffffffffffffff167f8c5be1e5ebec7d5bd14f71427d1e84f3dd0314c0f7b2291e5b200ac8c7c3b925836040516107e39190610c94565b60405180910390a3505050565b5f6107fb84846105ab565b90507fffffffffffffffffffffffffffffffffffffffffffffffffffffffffffffffff81146108f05781811015610867576040517f08c379a000000000000000000000000000000000000000000000000000000000815260040161085e90611067565b60405180910390fd5b81816108739190610ef4565b60055f8673ffffffffffffffffffffffffffffffffffffffff1673ffffffffffffffffffffffffffffffffffffffff1681526020019081526020015f205f8573ffffffffffffffffffffffffffffffffffffffff1673ffffffffffffffffffffffffffffffffffffffff1681526020019081526020015f20819055505b50505050565b5f73ffffffffffffffffffffffffffffffffffffffff168273ffffffffffffffffffffffffffffffffffffffff1603610964576040517f08c379a000000000000000000000000000000000000000000000000000000000815260040161095b906110cf565b60405180910390fd5b5f60045f8573ffffffffffffffffffffffffffffffffffffffff1673ffffffffffffffffffffffffffffffffffffffff1681526020019081526020015f20549050818110156109e8576040517f08c379a00000000000000000000000000000000000000000000000000000000081526004016109df90610ea9565b60405180910390fd5b81816109f49190610ef4565b60045f8673ffffffffffffffffffffffffffffffffffffffff1673ffffffffffffffffffffffffffffffffffffffff1681526020019081526020015f20819055508160045f8573ffffffffffffffffffffffffffffffffffffffff1673ffffffffffffffffffffffffffffffffffffffff1681526020019081526020015f205f828254610a8191906110ed565b925050819055508273ffffffffffffffffffffffffffffffffffffffff168473ffffffffffffffffffffffffffffffffffffffff167fddf252ad1be2c89b69c2b068fc378daa952ba7f163c4a11628f55a4df523b3ef84604051610ae59190610c94565b60405180910390a350505050565b5f81519050919050565b5f82825260208201905092915050565b8281835e5f83830152505050565b5f601f19601f8301169050919050565b5f610b3582610af3565b610b3f8185610afd565b9350610b4f818560208601610b0d565b610b5881610b1b565b840191505092915050565b5f6020820190508181035f830152610b7b8184610b2b565b905092915050565b5f5ffd5b5f73ffffffffffffffffffffffffffffffffffffffff82169050919050565b5f610bb082610b87565b9050919050565b610bc081610ba6565b8114610bca575f5ffd5b50565b5f81359050610bdb81610bb7565b92915050565b5f819050919050565b610bf381610be1565b8114610bfd575f5ffd5b50565b5f81359050610c0e81610bea565b92915050565b5f5f60408385031215610c2a57610c29610b83565b5b5f610c3785828601610bcd565b9250506020610c4885828601610c00565b9150509250929050565b5f8115159050919050565b610c6681610c52565b82525050565b5f602082019050610c7f5f830184610c5d565b92915050565b610c8e81610be1565b82525050565b5f602082019050610ca75f830184610c85565b92915050565b5f5f5f60608486031215610cc457610cc3610b83565b5b5f610cd186828701610bcd565b9350506020610ce286828701610bcd565b9250506040610cf386828701610c00565b9150509250925092565b5f60ff82169050919050565b610d1281610cfd565b82525050565b5f602082019050610d2b5f830184610d09565b92915050565b5f60208284031215610d4657610d45610b83565b5b5f610d5384828501610bcd565b91505092915050565b5f5f60408385031215610d7257610d71610b83565b5b5f610d7f85828601610bcd565b9250506020610d9085828601610bcd565b9150509250929050565b7f4e487b71000000000000000000000000000000000000000000000000000000005f52602260045260245ffd5b5f6002820490506001821680610dde57607f821691505b602082108103610df157610df0610d9a565b5b50919050565b7f496e76616c6964206275726e65720000000000000000000000000000000000005f82015250565b5f610e2b600e83610afd565b9150610e3682610df7565b602082019050919050565b5f6020820190508181035f830152610e5881610e1f565b9050919050565b7f496e73756666696369656e742062616c616e63650000000000000000000000005f82015250565b5f610e93601483610afd565b9150610e9e82610e5f565b602082019050919050565b5f6020820190508181035f830152610ec081610e87565b9050919050565b7f4e487b71000000000000000000000000000000000000000000000000000000005f52601160045260245ffd5b5f610efe82610be1565b9150610f0983610be1565b9250828203905081811115610f2157610f20610ec7565b5b92915050565b7f417070726f76652066726f6d207a65726f2061646472657373000000000000005f82015250565b5f610f5b601983610afd565b9150610f6682610f27565b602082019050919050565b5f6020820190508181035f830152610f8881610f4f565b9050919050565b7f417070726f766520746f207a65726f20616464726573730000000000000000005f82015250565b5f610fc3601783610afd565b9150610fce82610f8f565b602082019050919050565b5f6020820190508181035f830152610ff081610fb7565b9050919050565b7f4368616c6c656e6765333a20696e73756666696369656e7420616c6c6f77616e5f8201527f6365000000000000000000000000000000000000000000000000000000000000602082015250565b5f611051602283610afd565b915061105c82610ff7565b604082019050919050565b5f6020820190508181035f83015261107e81611045565b9050919050565b7f496e76616c6964207265636569766572000000000000000000000000000000005f82015250565b5f6110b9601083610afd565b91506110c482611085565b602082019050919050565b5f6020820190508181035f8301526110e6816110ad565b9050919050565b5f6110f782610be1565b915061110283610be1565b925082820190508082111561111a57611119610ec7565b5b9291505056fea2646970667358221220f993db0364803d8ffbb7dcf20b4c77c11edfb02b0de560f29753d862a18d13c464736f6c634300081c0033","linkReferences":{}},"methodIdentifiers":{"allowance(address,address)":"dd62ed3e","approve(address,uint256)":"095ea7b3","balanceOf(address)":"70a08231","burn(address,uint256)":"9dc29fac","decimals()":"313ce567","name()":"06fdde03","symbol()":"95d89b41","totalSupply()":"18160ddd","transfer(address,uint256)":"a9059cbb","transferFrom(address,address,uint256)":"23b872dd"},"id":20}