{"abi":[{"type":"constructor","inputs":[{"name":"_name","type":"string","internalType":"string"},{"name":"_symbol","type":"string","internalType":"string"}],"stateMutability":"nonpayable"},{"type":"function","name":"allowances","inputs":[{"name":"","type":"address","internalType":"address"},{"name":"","type":"address","internalType":"address"}],"outputs":[{"name":"","type":"uint256","internalType":"uint256"}],"stateMutability":"view"},{"type":"function","name":"approve","inputs":[{"name":"spender","type":"address","internalType":"address"},{"name":"amount","type":"uint256","internalType":"uint256"}],"outputs":[{"name":"","type":"bool","internalType":"bool"}],"stateMutability":"nonpayable"},{"type":"function","name":"balanceOf","inputs":[{"name":"","type":"address","internalType":"address"}],"outputs":[{"name":"","type":"uint256","internalType":"uint256"}],"stateMutability":"view"},{"type":"function","name":"decimals","inputs":[],"outputs":[{"name":"","type":"uint8","internalType":"uint8"}],"stateMutability":"view"},{"type":"function","name":"mint","inputs":[{"name":"amount","type":"uint256","internalType":"uint256"}],"outputs":[],"stateMutability":"nonpayable"},{"type":"function","name":"name","inputs":[],"outputs":[{"name":"","type":"string","internalType":"string"}],"stateMutability":"view"},{"type":"function","name":"owner","inputs":[],"outputs":[{"name":"","type":"address","internalType":"address"}],"stateMutability":"view"},{"type":"function","name":"symbol","inputs":[],"outputs":[{"name":"","type":"string","internalType":"string"}],"stateMutability":"view"},{"type":"function","name":"totalSupply","inputs":[],"outputs":[{"name":"","type":"uint256","internalType":"uint256"}],"stateMutability":"view"},{"type":"function","name":"transfer","inputs":[{"name":"to","type":"address","internalType":"address"},{"name":"amount","type":"uint256","internalType":"uint256"}],"outputs":[{"name":"","type":"bool","internalType":"bool"}],"stateMutability":"nonpayable"},{"type":"function","name":"transferFrom","inputs":[{"name":"from","type":"address","internalType":"address"},{"name":"to","type":"address","internalType":"address"},{"name":"amount","type":"uint256","internalType":"uint256"}],"outputs":[{"name":"","type":"bool","internalType":"bool"}],"stateMutability":"nonpayable"}],"bytecode":{"object":"0x608060405234801561000f575f5ffd5b506040516113e73803806113e783398181016040528101906100319190610200565b815f908161003f9190610486565b50806001908161004f9190610486565b50601260025f6101000a81548160ff021916908360ff16021790555033600260016101000a81548173ffffffffffffffffffffffffffffffffffffffff021916908373ffffffffffffffffffffffffffffffffffffffff1602179055505050610555565b5f604051905090565b5f5ffd5b5f5ffd5b5f5ffd5b5f5ffd5b5f601f19601f8301169050919050565b7f4e487b71000000000000000000000000000000000000000000000000000000005f52604160045260245ffd5b610112826100cc565b810181811067ffffffffffffffff82111715610131576101306100dc565b5b80604052505050565b5f6101436100b3565b905061014f8282610109565b919050565b5f67ffffffffffffffff82111561016e5761016d6100dc565b5b610177826100cc565b9050602081019050919050565b8281835e5f83830152505050565b5f6101a461019f84610154565b61013a565b9050828152602081018484840111156101c0576101bf6100c8565b5b6101cb848285610184565b509392505050565b5f82601f8301126101e7576101e66100c4565b5b81516101f7848260208601610192565b91505092915050565b5f5f60408385031215610216576102156100bc565b5b5f83015167ffffffffffffffff811115610233576102326100c0565b5b61023f858286016101d3565b925050602083015167ffffffffffffffff8111156102605761025f6100c0565b5b61026c858286016101d3565b9150509250929050565b5f81519050919050565b7f4e487b71000000000000000000000000000000000000000000000000000000005f52602260045260245ffd5b5f60028204905060018216806102c457607f821691505b6020821081036102d7576102d6610280565b5b50919050565b5f819050815f5260205f209050919050565b5f6020601f8301049050919050565b5f82821b905092915050565b5f600883026103397fffffffffffffffffffffffffffffffffffffffffffffffffffffffffffffffff826102fe565b61034386836102fe565b95508019841693508086168417925050509392505050565b5f819050919050565b5f819050919050565b5f61038761038261037d8461035b565b610364565b61035b565b9050919050565b5f819050919050565b6103a08361036d565b6103b46103ac8261038e565b84845461030a565b825550505050565b5f5f905090565b6103cb6103bc565b6103d6818484610397565b505050565b5b818110156103f9576103ee5f826103c3565b6001810190506103dc565b5050565b601f82111561043e5761040f816102dd565b610418846102ef565b81016020851015610427578190505b61043b610433856102ef565b8301826103db565b50505b505050565b5f82821c905092915050565b5f61045e5f1984600802610443565b1980831691505092915050565b5f610476838361044f565b9150826002028217905092915050565b61048f82610276565b67ffffffffffffffff8111156104a8576104a76100dc565b5b6104b282546102ad565b6104bd8282856103fd565b5f60209050601f8311600181146104ee575f84156104dc578287015190505b6104e6858261046b565b86555061054d565b601f1984166104fc866102dd565b5f5b82811015610523578489015182556001820191506020850194506020810190506104fe565b86831015610540578489015161053c601f89168261044f565b8355505b6001600288020188555050505b505050505050565b610e85806105625f395ff3fe608060405234801561000f575f5ffd5b50600436106100a7575f3560e01c806355b6ed5c1161006f57806355b6ed5c1461016557806370a08231146101955780638da5cb5b146101c557806395d89b41146101e3578063a0712d6814610201578063a9059cbb1461021d576100a7565b806306fdde03146100ab578063095ea7b3146100c957806318160ddd146100f957806323b872dd14610117578063313ce56714610147575b5f5ffd5b6100b361024d565b6040516100c09190610935565b60405180910390f35b6100e360048036038101906100de91906109e6565b6102d8565b6040516100f09190610a3e565b60405180910390f35b610101610360565b60405161010e9190610a66565b60405180910390f35b610131600480360381019061012c9190610a7f565b610366565b60405161013e9190610a3e565b60405180910390f35b61014f6104f8565b60405161015c9190610aea565b60405180910390f35b61017f600480360381019061017a9190610b03565b61050a565b60405161018c9190610a66565b60405180910390f35b6101af60048036038101906101aa9190610b41565b61052a565b6040516101bc9190610a66565b60405180910390f35b6101cd61053f565b6040516101da9190610b7b565b60405180910390f35b6101eb610565565b6040516101f89190610935565b60405180910390f35b61021b60048036038101906102169190610b94565b6105f1565b005b610237600480360381019061023291906109e6565b610711565b6040516102449190610a3e565b60405180910390f35b5f805461025990610bec565b80601f016020809104026020016040519081016040528092919081815260200182805461028590610bec565b80156102d05780601f106102a7576101008083540402835291602001916102d0565b820191905f5260205f20905b8154815290600101906020018083116102b357829003601f168201915b505050505081565b5f8160055f3373ffffffffffffffffffffffffffffffffffffffff1673ffffffffffffffffffffffffffffffffffffffff1681526020019081526020015f205f8573ffffffffffffffffffffffffffffffffffffffff1673ffffffffffffffffffffffffffffffffffffffff1681526020019081526020015f20819055506001905092915050565b60045481565b5f3373ffffffffffffffffffffffffffffffffffffffff168473ffffffffffffffffffffffffffffffffffffffff16146104e4578160055f8673ffffffffffffffffffffffffffffffffffffffff1673ffffffffffffffffffffffffffffffffffffffff1681526020019081526020015f205f3373ffffffffffffffffffffffffffffffffffffffff1673ffffffffffffffffffffffffffffffffffffffff1681526020019081526020015f20541015610455576040517f08c379a000000000000000000000000000000000000000000000000000000000815260040161044c90610c66565b60405180910390fd5b8160055f8673ffffffffffffffffffffffffffffffffffffffff1673ffffffffffffffffffffffffffffffffffffffff1681526020019081526020015f205f3373ffffffffffffffffffffffffffffffffffffffff1673ffffffffffffffffffffffffffffffffffffffff1681526020019081526020015f205f8282546104dc9190610cb1565b925050819055505b6104ef848484610725565b90509392505050565b60025f9054906101000a900460ff1681565b6005602052815f5260405f20602052805f5260405f205f91509150505481565b6003602052805f5260405f205f915090505481565b600260019054906101000a900473ffffffffffffffffffffffffffffffffffffffff1681565b6001805461057290610bec565b80601f016020809104026020016040519081016040528092919081815260200182805461059e90610bec565b80156105e95780601f106105c0576101008083540402835291602001916105e9565b820191905f5260205f20905b8154815290600101906020018083116105cc57829003601f168201915b505050505081565b600260019054906101000a900473ffffffffffffffffffffffffffffffffffffffff1673ffffffffffffffffffffffffffffffffffffffff163373ffffffffffffffffffffffffffffffffffffffff1614610681576040517f08c379a000000000000000000000000000000000000000000000000000000000815260040161067890610d2e565b60405180910390fd5b8060045f8282546106929190610d4c565b925050819055508060035f600260019054906101000a900473ffffffffffffffffffffffffffffffffffffffff1673ffffffffffffffffffffffffffffffffffffffff1673ffffffffffffffffffffffffffffffffffffffff1681526020019081526020015f205f8282546107079190610d4c565b9250508190555050565b5f61071d338484610725565b905092915050565b5f8160035f8673ffffffffffffffffffffffffffffffffffffffff1673ffffffffffffffffffffffffffffffffffffffff1681526020019081526020015f205410156107a6576040517f08c379a000000000000000000000000000000000000000000000000000000000815260040161079d90610dc9565b60405180910390fd5b5f73ffffffffffffffffffffffffffffffffffffffff168373ffffffffffffffffffffffffffffffffffffffff1603610814576040517f08c379a000000000000000000000000000000000000000000000000000000000815260040161080b90610e31565b60405180910390fd5b8160035f8673ffffffffffffffffffffffffffffffffffffffff1673ffffffffffffffffffffffffffffffffffffffff1681526020019081526020015f205f8282546108609190610cb1565b925050819055508160035f8573ffffffffffffffffffffffffffffffffffffffff1673ffffffffffffffffffffffffffffffffffffffff1681526020019081526020015f205f8282546108b39190610d4c565b92505081905550600190509392505050565b5f81519050919050565b5f82825260208201905092915050565b8281835e5f83830152505050565b5f601f19601f8301169050919050565b5f610907826108c5565b61091181856108cf565b93506109218185602086016108df565b61092a816108ed565b840191505092915050565b5f6020820190508181035f83015261094d81846108fd565b905092915050565b5f5ffd5b5f73ffffffffffffffffffffffffffffffffffffffff82169050919050565b5f61098282610959565b9050919050565b61099281610978565b811461099c575f5ffd5b50565b5f813590506109ad81610989565b92915050565b5f819050919050565b6109c5816109b3565b81146109cf575f5ffd5b50565b5f813590506109e0816109bc565b92915050565b5f5f604083850312156109fc576109fb610955565b5b5f610a098582860161099f565b9250506020610a1a858286016109d2565b9150509250929050565b5f8115159050919050565b610a3881610a24565b82525050565b5f602082019050610a515f830184610a2f565b92915050565b610a60816109b3565b82525050565b5f602082019050610a795f830184610a57565b92915050565b5f5f5f60608486031215610a9657610a95610955565b5b5f610aa38682870161099f565b9350506020610ab48682870161099f565b9250506040610ac5868287016109d2565b9150509250925092565b5f60ff82169050919050565b610ae481610acf565b82525050565b5f602082019050610afd5f830184610adb565b92915050565b5f5f60408385031215610b1957610b18610955565b5b5f610b268582860161099f565b9250506020610b378582860161099f565b9150509250929050565b5f60208284031215610b5657610b55610955565b5b5f610b638482850161099f565b91505092915050565b610b7581610978565b82525050565b5f602082019050610b8e5f830184610b6c565b92915050565b5f60208284031215610ba957610ba8610955565b5b5f610bb6848285016109d2565b91505092915050565b7f4e487b71000000000000000000000000000000000000000000000000000000005f52602260045260245ffd5b5f6002820490506001821680610c0357607f821691505b602082108103610c1657610c15610bbf565b5b50919050565b7f796f7520646f6e2774206861766520656e6f75676820616c6c6f77616e6365735f82015250565b5f610c506020836108cf565b9150610c5b82610c1c565b602082019050919050565b5f6020820190508181035f830152610c7d81610c44565b9050919050565b7f4e487b71000000000000000000000000000000000000000000000000000000005f52601160045260245ffd5b5f610cbb826109b3565b9150610cc6836109b3565b9250828203905081811115610cde57610cdd610c84565b5b92915050565b7f6f6e6c79206f776e65722063616e2063726561746520746f6b656e73000000005f82015250565b5f610d18601c836108cf565b9150610d2382610ce4565b602082019050919050565b5f6020820190508181035f830152610d4581610d0c565b9050919050565b5f610d56826109b3565b9150610d61836109b3565b9250828201905080821115610d7957610d78610c84565b5b92915050565b7f796f7520646f6e2774206861766520656e6f75676820746f6b656e73000000005f82015250565b5f610db3601c836108cf565b9150610dbe82610d7f565b602082019050919050565b5f6020820190508181035f830152610de081610da7565b9050919050565b7f63616e6e6f2774207472616e7366657220746f207a65726f20616464726573735f82015250565b5f610e1b6020836108cf565b9150610e2682610de7565b602082019050919050565b5f6020820190508181035f830152610e4881610e0f565b905091905056fea2646970667358221220af8ec814d8f528a64b2d574ba57319fdf0b14baa29bdd88eedc50745819cc39964736f6c634300081c0033","linkReferences":{}},"methodIdentifiers":{"allowances(address,address)":"55b6ed5c","approve(address,uint256)":"095ea7b3","balanceOf(address)":"70a08231","decimals()":"313ce567","mint(uint256)":"a0712d68","name()":"06fdde03","owner()":"8da5cb5b","symbol()":"95d89b41","totalSupply()":"18160ddd","transfer(address,uint256)":"a9059cbb","transferFrom(address,address,uint256)":"23b872dd"},"id":39}