{"abi":[{"type":"constructor","inputs":[],"stateMutability":"nonpayable"},{"type":"function","name":"addToBlacklist","inputs":[{"name":"account","type":"address","internalType":"address"}],"outputs":[],"stateMutability":"nonpayable"},{"type":"function","name":"allowance","inputs":[{"name":"owner","type":"address","internalType":"address"},{"name":"spender","type":"address","internalType":"address"}],"outputs":[{"name":"","type":"uint256","internalType":"uint256"}],"stateMutability":"view"},{"type":"function","name":"approve","inputs":[{"name":"spender","type":"address","internalType":"address"},{"name":"value","type":"uint256","internalType":"uint256"}],"outputs":[{"name":"","type":"bool","internalType":"bool"}],"stateMutability":"nonpayable"},{"type":"function","name":"balanceOf","inputs":[{"name":"account","type":"address","internalType":"address"}],"outputs":[{"name":"","type":"uint256","internalType":"uint256"}],"stateMutability":"view"},{"type":"function","name":"blacklist","inputs":[{"name":"","type":"address","internalType":"address"}],"outputs":[{"name":"","type":"bool","internalType":"bool"}],"stateMutability":"view"},{"type":"function","name":"contractOwner","inputs":[],"outputs":[{"name":"","type":"address","internalType":"address"}],"stateMutability":"view"},{"type":"function","name":"decimals","inputs":[],"outputs":[{"name":"","type":"uint8","internalType":"uint8"}],"stateMutability":"view"},{"type":"function","name":"name","inputs":[],"outputs":[{"name":"","type":"string","internalType":"string"}],"stateMutability":"view"},{"type":"function","name":"removeFromBlacklist","inputs":[{"name":"account","type":"address","internalType":"address"}],"outputs":[],"stateMutability":"nonpayable"},{"type":"function","name":"symbol","inputs":[],"outputs":[{"name":"","type":"string","internalType":"string"}],"stateMutability":"view"},{"type":"function","name":"totalSupply","inputs":[],"outputs":[{"name":"","type":"uint256","internalType":"uint256"}],"stateMutability":"view"},{"type":"function","name":"transfer","inputs":[{"name":"to","type":"address","internalType":"address"},{"name":"value","type":"uint256","internalType":"uint256"}],"outputs":[{"name":"","type":"bool","internalType":"bool"}],"stateMutability":"nonpayable"},{"type":"function","name":"transferFrom","inputs":[{"name":"from","type":"address","internalType":"address"},{"name":"to","type":"address","internalType":"address"},{"name":"value","type":"uint256","internalType":"uint256"}],"outputs":[{"name":"","type":"bool","internalType":"bool"}],"stateMutability":"nonpayable"},{"type":"event","name":"Approval","inputs":[{"name":"owner","type":"address","indexed":true,"internalType":"address"},{"name":"spender","type":"address","indexed":true,"internalType":"address"},{"name":"value","type":"uint256","indexed":false,"internalType":"uint256"}],"anonymous":false},{"type":"event","name":"Blacklisted","inputs":[{"name":"account","type":"address","indexed":true,"internalType":"address"}],"anonymous":false},{"type":"event","name":"Transfer","inputs":[{"name":"from","type":"address","indexed":true,"internalType":"address"},{"name":"to","type":"address","indexed":true,"internalType":"address"},{"name":"value","type":"uint256","indexed":false,"internalType":"uint256"}],"anonymous":false},{"type":"event","name":"Unblacklisted","inputs":[{"name":"account","type":"address","indexed":true,"internalType":"address"}],"anonymous":false},{"type":"error","name":"ERC20InsufficientAllowance","inputs":[{"name":"spender","type":"address","internalType":"address"},{"name":"allowance","type":"uint256","internalType":"uint256"},{"name":"needed","type":"uint256","internalType":"uint256"}]},{"type":"error","name":"ERC20InsufficientBalance","inputs":[{"name":"sender","type":"address","internalType":"address"},{"name":"balance","type":"uint256","internalType":"uint256"},{"name":"needed","type":"uint256","internalType":"uint256"}]},{"type":"error","name":"ERC20InvalidApprover","inputs":[{"name":"approver","type":"address","internalType":"address"}]},{"type":"error","name":"ERC20InvalidReceiver","inputs":[{"name":"receiver","type":"address","internalType":"address"}]},{"type":"error","name":"ERC20InvalidSender","inputs":[{"name":"sender","type":"address","internalType":"address"}]},{"type":"error","name":"ERC20InvalidSpender","inputs":[{"name":"spender","type":"address","internalType":"address"}]},{"type":"error","name":"Unauthorized","inputs":[]}],"bytecode":{"object":"0x608060405234801561000f575f5ffd5b506040518060400160405280600b81526020017f4275676779546f6b656e360000000000000000000000000000000000000000008152505f90816100539190610479565b506040518060400160405280600481526020017f4255473600000000000000000000000000000000000000000000000000000000815250600190816100989190610479565b503360025f6101000a81548173ffffffffffffffffffffffffffffffffffffffff021916908373ffffffffffffffffffffffffffffffffffffffff1602179055506100f33369d3c21bcecceda10000006100f860201b60201c565b610628565b5f73ffffffffffffffffffffffffffffffffffffffff168273ffffffffffffffffffffffffffffffffffffffff160361016857816040517fec442f0500000000000000000000000000000000000000000000000000000000815260040161015f9190610587565b60405180910390fd5b8060065f82825461017991906105cd565b925050819055508060035f8473ffffffffffffffffffffffffffffffffffffffff1673ffffffffffffffffffffffffffffffffffffffff1681526020019081526020015f205f8282546101cc91906105cd565b925050819055508173ffffffffffffffffffffffffffffffffffffffff165f73ffffffffffffffffffffffffffffffffffffffff167fddf252ad1be2c89b69c2b068fc378daa952ba7f163c4a11628f55a4df523b3ef83604051610230919061060f565b60405180910390a35050565b5f81519050919050565b7f4e487b71000000000000000000000000000000000000000000000000000000005f52604160045260245ffd5b7f4e487b71000000000000000000000000000000000000000000000000000000005f52602260045260245ffd5b5f60028204905060018216806102b757607f821691505b6020821081036102ca576102c9610273565b5b50919050565b5f819050815f5260205f209050919050565b5f6020601f8301049050919050565b5f82821b905092915050565b5f6008830261032c7fffffffffffffffffffffffffffffffffffffffffffffffffffffffffffffffff826102f1565b61033686836102f1565b95508019841693508086168417925050509392505050565b5f819050919050565b5f819050919050565b5f61037a6103756103708461034e565b610357565b61034e565b9050919050565b5f819050919050565b61039383610360565b6103a761039f82610381565b8484546102fd565b825550505050565b5f5f905090565b6103be6103af565b6103c981848461038a565b505050565b5b818110156103ec576103e15f826103b6565b6001810190506103cf565b5050565b601f82111561043157610402816102d0565b61040b846102e2565b8101602085101561041a578190505b61042e610426856102e2565b8301826103ce565b50505b505050565b5f82821c905092915050565b5f6104515f1984600802610436565b1980831691505092915050565b5f6104698383610442565b9150826002028217905092915050565b6104828261023c565b67ffffffffffffffff81111561049b5761049a610246565b5b6104a582546102a0565b6104b08282856103f0565b5f60209050601f8311600181146104e1575f84156104cf578287015190505b6104d9858261045e565b865550610540565b601f1984166104ef866102d0565b5f5b82811015610516578489015182556001820191506020850194506020810190506104f1565b86831015610533578489015161052f601f891682610442565b8355505b6001600288020188555050505b505050505050565b5f73ffffffffffffffffffffffffffffffffffffffff82169050919050565b5f61057182610548565b9050919050565b61058181610567565b82525050565b5f60208201905061059a5f830184610578565b92915050565b7f4e487b71000000000000000000000000000000000000000000000000000000005f52601160045260245ffd5b5f6105d78261034e565b91506105e28361034e565b92508282019050808211156105fa576105f96105a0565b5b92915050565b6106098161034e565b82525050565b5f6020820190506106225f830184610600565b92915050565b611399806106355f395ff3fe608060405234801561000f575f5ffd5b50600436106100cd575f3560e01c8063537df3b61161008a578063a9059cbb11610064578063a9059cbb14610211578063ce606ee014610241578063dd62ed3e1461025f578063f9f92be41461028f576100cd565b8063537df3b6146101a757806370a08231146101c357806395d89b41146101f3576100cd565b806306fdde03146100d1578063095ea7b3146100ef57806318160ddd1461011f57806323b872dd1461013d578063313ce5671461016d57806344337ea11461018b575b5f5ffd5b6100d96102bf565b6040516100e69190610ee9565b60405180910390f35b61010960048036038101906101049190610f9a565b61034a565b6040516101169190610ff2565b60405180910390f35b610127610360565b604051610134919061101a565b60405180910390f35b61015760048036038101906101529190611033565b610369565b6040516101649190610ff2565b60405180910390f35b610175610468565b604051610182919061109e565b60405180910390f35b6101a560048036038101906101a091906110b7565b61046d565b005b6101c160048036038101906101bc91906110b7565b61058e565b005b6101dd60048036038101906101d891906110b7565b6106ae565b6040516101ea919061101a565b60405180910390f35b6101fb6106f4565b6040516102089190610ee9565b60405180910390f35b61022b60048036038101906102269190610f9a565b610780565b6040516102389190610ff2565b60405180910390f35b610249610873565b60405161025691906110f1565b60405180910390f35b6102796004803603810190610274919061110a565b610898565b604051610286919061101a565b60405180910390f35b6102a960048036038101906102a491906110b7565b61091a565b6040516102b69190610ff2565b60405180910390f35b5f80546102cb90611175565b80601f01602080910402602001604051908101604052809291908181526020018280546102f790611175565b80156103425780601f1061031957610100808354040283529160200191610342565b820191905f5260205f20905b81548152906001019060200180831161032557829003601f168201915b505050505081565b5f610356338484610937565b6001905092915050565b5f600654905090565b5f60055f3373ffffffffffffffffffffffffffffffffffffffff1673ffffffffffffffffffffffffffffffffffffffff1681526020019081526020015f205f9054906101000a900460ff16158015610408575060055f8473ffffffffffffffffffffffffffffffffffffffff1673ffffffffffffffffffffffffffffffffffffffff1681526020019081526020015f205f9054906101000a900460ff16155b610447576040517f08c379a000000000000000000000000000000000000000000000000000000000815260040161043e906111ef565b60405180910390fd5b610452843384610afe565b61045d848484610c04565b600190509392505050565b601281565b60025f9054906101000a900473ffffffffffffffffffffffffffffffffffffffff1673ffffffffffffffffffffffffffffffffffffffff163373ffffffffffffffffffffffffffffffffffffffff16146104f3576040517f82b4290000000000000000000000000000000000000000000000000000000000815260040160405180910390fd5b600160055f8373ffffffffffffffffffffffffffffffffffffffff1673ffffffffffffffffffffffffffffffffffffffff1681526020019081526020015f205f6101000a81548160ff0219169083151502179055508073ffffffffffffffffffffffffffffffffffffffff167fffa4e6181777692565cf28528fc88fd1516ea86b56da075235fa575af6a4b85560405160405180910390a250565b60025f9054906101000a900473ffffffffffffffffffffffffffffffffffffffff1673ffffffffffffffffffffffffffffffffffffffff163373ffffffffffffffffffffffffffffffffffffffff1614610614576040517f82b4290000000000000000000000000000000000000000000000000000000000815260040160405180910390fd5b5f60055f8373ffffffffffffffffffffffffffffffffffffffff1673ffffffffffffffffffffffffffffffffffffffff1681526020019081526020015f205f6101000a81548160ff0219169083151502179055508073ffffffffffffffffffffffffffffffffffffffff167f7534c63860313c46c473e4e98328f37017e9674e2162faf1a3ad7a96236c3b7b60405160405180910390a250565b5f60035f8373ffffffffffffffffffffffffffffffffffffffff1673ffffffffffffffffffffffffffffffffffffffff1681526020019081526020015f20549050919050565b6001805461070190611175565b80601f016020809104026020016040519081016040528092919081815260200182805461072d90611175565b80156107785780601f1061074f57610100808354040283529160200191610778565b820191905f5260205f20905b81548152906001019060200180831161075b57829003601f168201915b505050505081565b5f60055f3373ffffffffffffffffffffffffffffffffffffffff1673ffffffffffffffffffffffffffffffffffffffff1681526020019081526020015f205f9054906101000a900460ff1615801561081f575060055f8473ffffffffffffffffffffffffffffffffffffffff1673ffffffffffffffffffffffffffffffffffffffff1681526020019081526020015f205f9054906101000a900460ff16155b61085e576040517f08c379a0000000000000000000000000000000000000000000000000000000008152600401610855906111ef565b60405180910390fd5b610869338484610c04565b6001905092915050565b60025f9054906101000a900473ffffffffffffffffffffffffffffffffffffffff1681565b5f60045f8473ffffffffffffffffffffffffffffffffffffffff1673ffffffffffffffffffffffffffffffffffffffff1681526020019081526020015f205f8373ffffffffffffffffffffffffffffffffffffffff1673ffffffffffffffffffffffffffffffffffffffff1681526020019081526020015f2054905092915050565b6005602052805f5260405f205f915054906101000a900460ff1681565b5f73ffffffffffffffffffffffffffffffffffffffff168373ffffffffffffffffffffffffffffffffffffffff16036109a757826040517fe602df0500000000000000000000000000000000000000000000000000000000815260040161099e91906110f1565b60405180910390fd5b5f73ffffffffffffffffffffffffffffffffffffffff168273ffffffffffffffffffffffffffffffffffffffff1603610a1757816040517f94280d62000000000000000000000000000000000000000000000000000000008152600401610a0e91906110f1565b60405180910390fd5b8060045f8573ffffffffffffffffffffffffffffffffffffffff1673ffffffffffffffffffffffffffffffffffffffff1681526020019081526020015f205f8473ffffffffffffffffffffffffffffffffffffffff1673ffffffffffffffffffffffffffffffffffffffff1681526020019081526020015f20819055508173ffffffffffffffffffffffffffffffffffffffff168373ffffffffffffffffffffffffffffffffffffffff167f8c5be1e5ebec7d5bd14f71427d1e84f3dd0314c0f7b2291e5b200ac8c7c3b92583604051610af1919061101a565b60405180910390a3505050565b5f610b098484610898565b90507fffffffffffffffffffffffffffffffffffffffffffffffffffffffffffffffff8114610bfe5781811015610b75576040517f08c379a0000000000000000000000000000000000000000000000000000000008152600401610b6c9061127d565b60405180910390fd5b8181610b8191906112c8565b60045f8673ffffffffffffffffffffffffffffffffffffffff1673ffffffffffffffffffffffffffffffffffffffff1681526020019081526020015f205f8573ffffffffffffffffffffffffffffffffffffffff1673ffffffffffffffffffffffffffffffffffffffff1681526020019081526020015f20819055505b50505050565b5f73ffffffffffffffffffffffffffffffffffffffff168373ffffffffffffffffffffffffffffffffffffffff1603610c7457826040517f96c6fd1e000000000000000000000000000000000000000000000000000000008152600401610c6b91906110f1565b60405180910390fd5b5f73ffffffffffffffffffffffffffffffffffffffff168273ffffffffffffffffffffffffffffffffffffffff1603610ce457816040517fec442f05000000000000000000000000000000000000000000000000000000008152600401610cdb91906110f1565b60405180910390fd5b5f60035f8573ffffffffffffffffffffffffffffffffffffffff1673ffffffffffffffffffffffffffffffffffffffff1681526020019081526020015f2054905081811015610d6e578381836040517fe450d38c000000000000000000000000000000000000000000000000000000008152600401610d65939291906112fb565b60405180910390fd5b8181610d7a91906112c8565b60035f8673ffffffffffffffffffffffffffffffffffffffff1673ffffffffffffffffffffffffffffffffffffffff1681526020019081526020015f20819055508160035f8573ffffffffffffffffffffffffffffffffffffffff1673ffffffffffffffffffffffffffffffffffffffff1681526020019081526020015f205f828254610e079190611330565b925050819055508273ffffffffffffffffffffffffffffffffffffffff168473ffffffffffffffffffffffffffffffffffffffff167fddf252ad1be2c89b69c2b068fc378daa952ba7f163c4a11628f55a4df523b3ef84604051610e6b919061101a565b60405180910390a350505050565b5f81519050919050565b5f82825260208201905092915050565b8281835e5f83830152505050565b5f601f19601f8301169050919050565b5f610ebb82610e79565b610ec58185610e83565b9350610ed5818560208601610e93565b610ede81610ea1565b840191505092915050565b5f6020820190508181035f830152610f018184610eb1565b905092915050565b5f5ffd5b5f73ffffffffffffffffffffffffffffffffffffffff82169050919050565b5f610f3682610f0d565b9050919050565b610f4681610f2c565b8114610f50575f5ffd5b50565b5f81359050610f6181610f3d565b92915050565b5f819050919050565b610f7981610f67565b8114610f83575f5ffd5b50565b5f81359050610f9481610f70565b92915050565b5f5f60408385031215610fb057610faf610f09565b5b5f610fbd85828601610f53565b9250506020610fce85828601610f86565b9150509250929050565b5f8115159050919050565b610fec81610fd8565b82525050565b5f6020820190506110055f830184610fe3565b92915050565b61101481610f67565b82525050565b5f60208201905061102d5f83018461100b565b92915050565b5f5f5f6060848603121561104a57611049610f09565b5b5f61105786828701610f53565b935050602061106886828701610f53565b925050604061107986828701610f86565b9150509250925092565b5f60ff82169050919050565b61109881611083565b82525050565b5f6020820190506110b15f83018461108f565b92915050565b5f602082840312156110cc576110cb610f09565b5b5f6110d984828501610f53565b91505092915050565b6110eb81610f2c565b82525050565b5f6020820190506111045f8301846110e2565b92915050565b5f5f604083850312156111205761111f610f09565b5b5f61112d85828601610f53565b925050602061113e85828601610f53565b9150509250929050565b7f4e487b71000000000000000000000000000000000000000000000000000000005f52602260045260245ffd5b5f600282049050600182168061118c57607f821691505b60208210810361119f5761119e611148565b5b50919050565b7f53656e646572206f7220726563656976657220626c61636b6c697374656400005f82015250565b5f6111d9601e83610e83565b91506111e4826111a5565b602082019050919050565b5f6020820190508181035f830152611206816111cd565b9050919050565b7f4368616c6c656e676530363a20696e73756666696369656e7420616c6c6f77615f8201527f6e63650000000000000000000000000000000000000000000000000000000000602082015250565b5f611267602383610e83565b91506112728261120d565b604082019050919050565b5f6020820190508181035f8301526112948161125b565b9050919050565b7f4e487b71000000000000000000000000000000000000000000000000000000005f52601160045260245ffd5b5f6112d282610f67565b91506112dd83610f67565b92508282039050818111156112f5576112f461129b565b5b92915050565b5f60608201905061130e5f8301866110e2565b61131b602083018561100b565b611328604083018461100b565b949350505050565b5f61133a82610f67565b915061134583610f67565b925082820190508082111561135d5761135c61129b565b5b9291505056fea2646970667358221220cac75509136bb8a52eb61b5b4dd658b0551d62afdbdc2c012cefd9f89311171464736f6c634300081c0033","linkReferences":{}},"methodIdentifiers":{"addToBlacklist(address)":"44337ea1","allowance(address,address)":"dd62ed3e","approve(address,uint256)":"095ea7b3","balanceOf(address)":"70a08231","blacklist(address)":"f9f92be4","contractOwner()":"ce606ee0","decimals()":"313ce567","name()":"06fdde03","removeFromBlacklist(address)":"537df3b6","symbol()":"95d89b41","totalSupply()":"18160ddd","transfer(address,uint256)":"a9059cbb","transferFrom(address,address,uint256)":"23b872dd"},"id":23}