{"abi":[{"type":"constructor","inputs":[],"stateMutability":"nonpayable"},{"type":"function","name":"allowance","inputs":[{"name":"tokenOwner","type":"address","internalType":"address"},{"name":"spender","type":"address","internalType":"address"}],"outputs":[{"name":"","type":"uint256","internalType":"uint256"}],"stateMutability":"view"},{"type":"function","name":"approve","inputs":[{"name":"spender","type":"address","internalType":"address"},{"name":"value","type":"uint256","internalType":"uint256"}],"outputs":[{"name":"","type":"bool","internalType":"bool"}],"stateMutability":"nonpayable"},{"type":"function","name":"balanceOf","inputs":[{"name":"account","type":"address","internalType":"address"}],"outputs":[{"name":"","type":"uint256","internalType":"uint256"}],"stateMutability":"view"},{"type":"function","name":"decimals","inputs":[],"outputs":[{"name":"","type":"uint8","internalType":"uint8"}],"stateMutability":"view"},{"type":"function","name":"name","inputs":[],"outputs":[{"name":"","type":"string","internalType":"string"}],"stateMutability":"view"},{"type":"function","name":"owner","inputs":[],"outputs":[{"name":"","type":"address","internalType":"address"}],"stateMutability":"view"},{"type":"function","name":"pause","inputs":[],"outputs":[],"stateMutability":"nonpayable"},{"type":"function","name":"paused","inputs":[],"outputs":[{"name":"","type":"bool","internalType":"bool"}],"stateMutability":"view"},{"type":"function","name":"symbol","inputs":[],"outputs":[{"name":"","type":"string","internalType":"string"}],"stateMutability":"view"},{"type":"function","name":"totalSupply","inputs":[],"outputs":[{"name":"","type":"uint256","internalType":"uint256"}],"stateMutability":"view"},{"type":"function","name":"transfer","inputs":[{"name":"to","type":"address","internalType":"address"},{"name":"value","type":"uint256","internalType":"uint256"}],"outputs":[{"name":"","type":"bool","internalType":"bool"}],"stateMutability":"nonpayable"},{"type":"function","name":"transferFrom","inputs":[{"name":"from","type":"address","internalType":"address"},{"name":"to","type":"address","internalType":"address"},{"name":"value","type":"uint256","internalType":"uint256"}],"outputs":[{"name":"","type":"bool","internalType":"bool"}],"stateMutability":"nonpayable"},{"type":"function","name":"unpause","inputs":[],"outputs":[],"stateMutability":"nonpayable"},{"type":"event","name":"Approval","inputs":[{"name":"owner","type":"address","indexed":true,"internalType":"address"},{"name":"spender","type":"address","indexed":true,"internalType":"address"},{"name":"value","type":"uint256","indexed":false,"internalType":"uint256"}],"anonymous":false},{"type":"event","name":"Paused","inputs":[{"name":"account","type":"address","indexed":false,"internalType":"address"}],"anonymous":false},{"type":"event","name":"Transfer","inputs":[{"name":"from","type":"address","indexed":true,"internalType":"address"},{"name":"to","type":"address","indexed":true,"internalType":"address"},{"name":"value","type":"uint256","indexed":false,"internalType":"uint256"}],"anonymous":false},{"type":"event","name":"Unpaused","inputs":[{"name":"account","type":"address","indexed":false,"internalType":"address"}],"anonymous":false}],"bytecode":{"object":"0x60a0604052601260ff1660809060ff1681525034801561001d575f5ffd5b506040518060400160405280600b81526020017f4275676779546f6b656e340000000000000000000000000000000000000000008152505f90816100619190610498565b506040518060400160405280600481526020017f4255473400000000000000000000000000000000000000000000000000000000815250600190816100a69190610498565b5033600360016101000a81548173ffffffffffffffffffffffffffffffffffffffff021916908373ffffffffffffffffffffffffffffffffffffffff16021790555061011433608051600a6100fb91906106cf565b620f42406101099190610719565b61011960201b60201c565b61082d565b5f73ffffffffffffffffffffffffffffffffffffffff168273ffffffffffffffffffffffffffffffffffffffff1603610187576040517f08c379a000000000000000000000000000000000000000000000000000000000815260040161017e906107b4565b60405180910390fd5b8060025f82825461019891906107d2565b925050819055508060045f8473ffffffffffffffffffffffffffffffffffffffff1673ffffffffffffffffffffffffffffffffffffffff1681526020019081526020015f205f8282546101eb91906107d2565b925050819055508173ffffffffffffffffffffffffffffffffffffffff165f73ffffffffffffffffffffffffffffffffffffffff167fddf252ad1be2c89b69c2b068fc378daa952ba7f163c4a11628f55a4df523b3ef8360405161024f9190610814565b60405180910390a35050565b5f81519050919050565b7f4e487b71000000000000000000000000000000000000000000000000000000005f52604160045260245ffd5b7f4e487b71000000000000000000000000000000000000000000000000000000005f52602260045260245ffd5b5f60028204905060018216806102d657607f821691505b6020821081036102e9576102e8610292565b5b50919050565b5f819050815f5260205f209050919050565b5f6020601f8301049050919050565b5f82821b905092915050565b5f6008830261034b7fffffffffffffffffffffffffffffffffffffffffffffffffffffffffffffffff82610310565b6103558683610310565b95508019841693508086168417925050509392505050565b5f819050919050565b5f819050919050565b5f61039961039461038f8461036d565b610376565b61036d565b9050919050565b5f819050919050565b6103b28361037f565b6103c66103be826103a0565b84845461031c565b825550505050565b5f5f905090565b6103dd6103ce565b6103e88184846103a9565b505050565b5b8181101561040b576104005f826103d5565b6001810190506103ee565b5050565b601f82111561045057610421816102ef565b61042a84610301565b81016020851015610439578190505b61044d61044585610301565b8301826103ed565b50505b505050565b5f82821c905092915050565b5f6104705f1984600802610455565b1980831691505092915050565b5f6104888383610461565b9150826002028217905092915050565b6104a18261025b565b67ffffffffffffffff8111156104ba576104b9610265565b5b6104c482546102bf565b6104cf82828561040f565b5f60209050601f831160018114610500575f84156104ee578287015190505b6104f8858261047d565b86555061055f565b601f19841661050e866102ef565b5f5b8281101561053557848901518255600182019150602085019450602081019050610510565b86831015610552578489015161054e601f891682610461565b8355505b6001600288020188555050505b505050505050565b7f4e487b71000000000000000000000000000000000000000000000000000000005f52601160045260245ffd5b5f8160011c9050919050565b5f5f8291508390505b60018511156105e9578086048111156105c5576105c4610567565b5b60018516156105d45780820291505b80810290506105e285610594565b94506105a9565b94509492505050565b5f8261060157600190506106bc565b8161060e575f90506106bc565b8160018114610624576002811461062e5761065d565b60019150506106bc565b60ff8411156106405761063f610567565b5b8360020a91508482111561065757610656610567565b5b506106bc565b5060208310610133831016604e8410600b84101617156106925782820a90508381111561068d5761068c610567565b5b6106bc565b61069f84848460016105a0565b925090508184048111156106b6576106b5610567565b5b81810290505b9392505050565b5f60ff82169050919050565b5f6106d98261036d565b91506106e4836106c3565b92506107117fffffffffffffffffffffffffffffffffffffffffffffffffffffffffffffffff84846105f2565b905092915050565b5f6107238261036d565b915061072e8361036d565b925082820261073c8161036d565b9150828204841483151761075357610752610567565b5b5092915050565b5f82825260208201905092915050565b7f4368616c6c656e6765343a206d696e7420746f207a65726f20616464726573735f82015250565b5f61079e60208361075a565b91506107a98261076a565b602082019050919050565b5f6020820190508181035f8301526107cb81610792565b9050919050565b5f6107dc8261036d565b91506107e78361036d565b92508282019050808211156107ff576107fe610567565b5b92915050565b61080e8161036d565b82525050565b5f6020820190506108275f830184610805565b92915050565b60805161135a6108455f395f610357015261135a5ff3fe608060405234801561000f575f5ffd5b50600436106100cd575f3560e01c80635c975abb1161008a5780638da5cb5b116100645780638da5cb5b146101ed57806395d89b411461020b578063a9059cbb14610229578063dd62ed3e14610259576100cd565b80635c975abb1461019557806370a08231146101b35780638456cb59146101e3576100cd565b806306fdde03146100d1578063095ea7b3146100ef57806318160ddd1461011f57806323b872dd1461013d578063313ce5671461016d5780633f4ba83a1461018b575b5f5ffd5b6100d9610289565b6040516100e69190610c65565b60405180910390f35b61010960048036038101906101049190610d16565b610314565b6040516101169190610d6e565b60405180910390f35b61012761032a565b6040516101349190610d96565b60405180910390f35b61015760048036038101906101529190610daf565b610333565b6040516101649190610d6e565b60405180910390f35b610175610355565b6040516101829190610e1a565b60405180910390f35b610193610379565b005b61019d61045b565b6040516101aa9190610d6e565b60405180910390f35b6101cd60048036038101906101c89190610e33565b61046d565b6040516101da9190610d96565b60405180910390f35b6101eb6104b3565b005b6101f5610596565b6040516102029190610e6d565b60405180910390f35b6102136105bc565b6040516102209190610c65565b60405180910390f35b610243600480360381019061023e9190610d16565b610648565b6040516102509190610d6e565b60405180910390f35b610273600480360381019061026e9190610e86565b6106ad565b6040516102809190610d96565b60405180910390f35b5f805461029590610ef1565b80601f01602080910402602001604051908101604052809291908181526020018280546102c190610ef1565b801561030c5780601f106102e35761010080835404028352916020019161030c565b820191905f5260205f20905b8154815290600101906020018083116102ef57829003601f168201915b505050505081565b5f61032033848461072f565b6001905092915050565b5f600254905090565b5f61033f8433846108f2565b61034a8484846109f8565b600190509392505050565b7f000000000000000000000000000000000000000000000000000000000000000081565b600360019054906101000a900473ffffffffffffffffffffffffffffffffffffffff1673ffffffffffffffffffffffffffffffffffffffff163373ffffffffffffffffffffffffffffffffffffffff1614610409576040517f08c379a000000000000000000000000000000000000000000000000000000000815260040161040090610f6b565b60405180910390fd5b5f60035f6101000a81548160ff0219169083151502179055507f5db9ee0a495bf2e6ff9c91a7834c1ba4fdd244a5e8aa4e537bd38aeae4b073aa336040516104519190610e6d565b60405180910390a1565b60035f9054906101000a900460ff1681565b5f60045f8373ffffffffffffffffffffffffffffffffffffffff1673ffffffffffffffffffffffffffffffffffffffff1681526020019081526020015f20549050919050565b600360019054906101000a900473ffffffffffffffffffffffffffffffffffffffff1673ffffffffffffffffffffffffffffffffffffffff163373ffffffffffffffffffffffffffffffffffffffff1614610543576040517f08c379a000000000000000000000000000000000000000000000000000000000815260040161053a90610f6b565b60405180910390fd5b600160035f6101000a81548160ff0219169083151502179055507f62e78cea01bee320cd4e420270b5ea74000d11b0c9f74754ebdbfc544b05a2583360405161058c9190610e6d565b60405180910390a1565b600360019054906101000a900473ffffffffffffffffffffffffffffffffffffffff1681565b600180546105c990610ef1565b80601f01602080910402602001604051908101604052809291908181526020018280546105f590610ef1565b80156106405780601f1061061757610100808354040283529160200191610640565b820191905f5260205f20905b81548152906001019060200180831161062357829003601f168201915b505050505081565b5f60035f9054906101000a900460ff1615610698576040517f08c379a000000000000000000000000000000000000000000000000000000000815260040161068f90610fd3565b60405180910390fd5b6106a33384846109f8565b6001905092915050565b5f60055f8473ffffffffffffffffffffffffffffffffffffffff1673ffffffffffffffffffffffffffffffffffffffff1681526020019081526020015f205f8373ffffffffffffffffffffffffffffffffffffffff1673ffffffffffffffffffffffffffffffffffffffff1681526020019081526020015f2054905092915050565b5f73ffffffffffffffffffffffffffffffffffffffff168373ffffffffffffffffffffffffffffffffffffffff160361079d576040517f08c379a000000000000000000000000000000000000000000000000000000000815260040161079490611061565b60405180910390fd5b5f73ffffffffffffffffffffffffffffffffffffffff168273ffffffffffffffffffffffffffffffffffffffff160361080b576040517f08c379a0000000000000000000000000000000000000000000000000000000008152600401610802906110ef565b60405180910390fd5b8060055f8573ffffffffffffffffffffffffffffffffffffffff1673ffffffffffffffffffffffffffffffffffffffff1681526020019081526020015f205f8473ffffffffffffffffffffffffffffffffffffffff1673ffffffffffffffffffffffffffffffffffffffff1681526020019081526020015f20819055508173ffffffffffffffffffffffffffffffffffffffff168373ffffffffffffffffffffffffffffffffffffffff167f8c5be1e5ebec7d5bd14f71427d1e84f3dd0314c0f7b2291e5b200ac8c7c3b925836040516108e59190610d96565b60405180910390a3505050565b5f6108fd84846106ad565b90507fffffffffffffffffffffffffffffffffffffffffffffffffffffffffffffffff81146109f25781811015610969576040517f08c379a00000000000000000000000000000000000000000000000000000000081526004016109609061117d565b60405180910390fd5b818161097591906111c8565b60055f8673ffffffffffffffffffffffffffffffffffffffff1673ffffffffffffffffffffffffffffffffffffffff1681526020019081526020015f205f8573ffffffffffffffffffffffffffffffffffffffff1673ffffffffffffffffffffffffffffffffffffffff1681526020019081526020015f20819055505b50505050565b5f73ffffffffffffffffffffffffffffffffffffffff168273ffffffffffffffffffffffffffffffffffffffff1603610a66576040517f08c379a0000000000000000000000000000000000000000000000000000000008152600401610a5d9061126b565b60405180910390fd5b5f60045f8573ffffffffffffffffffffffffffffffffffffffff1673ffffffffffffffffffffffffffffffffffffffff1681526020019081526020015f2054905081811015610aea576040517f08c379a0000000000000000000000000000000000000000000000000000000008152600401610ae1906112d3565b60405180910390fd5b8181610af691906111c8565b60045f8673ffffffffffffffffffffffffffffffffffffffff1673ffffffffffffffffffffffffffffffffffffffff1681526020019081526020015f20819055508160045f8573ffffffffffffffffffffffffffffffffffffffff1673ffffffffffffffffffffffffffffffffffffffff1681526020019081526020015f205f828254610b8391906112f1565b925050819055508273ffffffffffffffffffffffffffffffffffffffff168473ffffffffffffffffffffffffffffffffffffffff167fddf252ad1be2c89b69c2b068fc378daa952ba7f163c4a11628f55a4df523b3ef84604051610be79190610d96565b60405180910390a350505050565b5f81519050919050565b5f82825260208201905092915050565b8281835e5f83830152505050565b5f601f19601f8301169050919050565b5f610c3782610bf5565b610c418185610bff565b9350610c51818560208601610c0f565b610c5a81610c1d565b840191505092915050565b5f6020820190508181035f830152610c7d8184610c2d565b905092915050565b5f5ffd5b5f73ffffffffffffffffffffffffffffffffffffffff82169050919050565b5f610cb282610c89565b9050919050565b610cc281610ca8565b8114610ccc575f5ffd5b50565b5f81359050610cdd81610cb9565b92915050565b5f819050919050565b610cf581610ce3565b8114610cff575f5ffd5b50565b5f81359050610d1081610cec565b92915050565b5f5f60408385031215610d2c57610d2b610c85565b5b5f610d3985828601610ccf565b9250506020610d4a85828601610d02565b9150509250929050565b5f8115159050919050565b610d6881610d54565b82525050565b5f602082019050610d815f830184610d5f565b92915050565b610d9081610ce3565b82525050565b5f602082019050610da95f830184610d87565b92915050565b5f5f5f60608486031215610dc657610dc5610c85565b5b5f610dd386828701610ccf565b9350506020610de486828701610ccf565b9250506040610df586828701610d02565b9150509250925092565b5f60ff82169050919050565b610e1481610dff565b82525050565b5f602082019050610e2d5f830184610e0b565b92915050565b5f60208284031215610e4857610e47610c85565b5b5f610e5584828501610ccf565b91505092915050565b610e6781610ca8565b82525050565b5f602082019050610e805f830184610e5e565b92915050565b5f5f60408385031215610e9c57610e9b610c85565b5b5f610ea985828601610ccf565b9250506020610eba85828601610ccf565b9150509250929050565b7f4e487b71000000000000000000000000000000000000000000000000000000005f52602260045260245ffd5b5f6002820490506001821680610f0857607f821691505b602082108103610f1b57610f1a610ec4565b5b50919050565b7f4368616c6c656e6765343a2063616c6c6572206973206e6f74206f776e6572005f82015250565b5f610f55601f83610bff565b9150610f6082610f21565b602082019050919050565b5f6020820190508181035f830152610f8281610f49565b9050919050565b7f4368616c6c656e6765343a207472616e736665727320706175736564000000005f82015250565b5f610fbd601c83610bff565b9150610fc882610f89565b602082019050919050565b5f6020820190508181035f830152610fea81610fb1565b9050919050565b7f4368616c6c656e6765343a20617070726f76652066726f6d207a65726f2061645f8201527f6472657373000000000000000000000000000000000000000000000000000000602082015250565b5f61104b602583610bff565b915061105682610ff1565b604082019050919050565b5f6020820190508181035f8301526110788161103f565b9050919050565b7f4368616c6c656e6765343a20617070726f766520746f207a65726f20616464725f8201527f6573730000000000000000000000000000000000000000000000000000000000602082015250565b5f6110d9602383610bff565b91506110e48261107f565b604082019050919050565b5f6020820190508181035f830152611106816110cd565b9050919050565b7f4368616c6c656e6765343a20696e73756666696369656e7420616c6c6f77616e5f8201527f6365000000000000000000000000000000000000000000000000000000000000602082015250565b5f611167602283610bff565b91506111728261110d565b604082019050919050565b5f6020820190508181035f8301526111948161115b565b9050919050565b7f4e487b71000000000000000000000000000000000000000000000000000000005f52601160045260245ffd5b5f6111d282610ce3565b91506111dd83610ce3565b92508282039050818111156111f5576111f461119b565b5b92915050565b7f4368616c6c656e6765343a207472616e7366657220746f207a65726f206164645f8201527f7265737300000000000000000000000000000000000000000000000000000000602082015250565b5f611255602483610bff565b9150611260826111fb565b604082019050919050565b5f6020820190508181035f83015261128281611249565b9050919050565b7f4368616c6c656e6765343a20696e73756666696369656e742062616c616e63655f82015250565b5f6112bd602083610bff565b91506112c882611289565b602082019050919050565b5f6020820190508181035f8301526112ea816112b1565b9050919050565b5f6112fb82610ce3565b915061130683610ce3565b925082820190508082111561131e5761131d61119b565b5b9291505056fea2646970667358221220cecd90cf1ee3e7e1da1fd8555047e6abcac3620a70d4ee8ecde6288befd37dcb64736f6c634300081c0033","linkReferences":{}},"methodIdentifiers":{"allowance(address,address)":"dd62ed3e","approve(address,uint256)":"095ea7b3","balanceOf(address)":"70a08231","decimals()":"313ce567","name()":"06fdde03","owner()":"8da5cb5b","pause()":"8456cb59","paused()":"5c975abb","symbol()":"95d89b41","totalSupply()":"18160ddd","transfer(address,uint256)":"a9059cbb","transferFrom(address,address,uint256)":"23b872dd","unpause()":"3f4ba83a"},"id":21}