{"abi":[{"type":"constructor","inputs":[],"stateMutability":"nonpayable"},{"type":"function","name":"allowance","inputs":[{"name":"tokenOwner","type":"address","internalType":"address"},{"name":"spender","type":"address","internalType":"address"}],"outputs":[{"name":"","type":"uint256","internalType":"uint256"}],"stateMutability":"view"},{"type":"function","name":"approve","inputs":[{"name":"spender","type":"address","internalType":"address"},{"name":"value","type":"uint256","internalType":"uint256"}],"outputs":[{"name":"","type":"bool","internalType":"bool"}],"stateMutability":"nonpayable"},{"type":"function","name":"balanceOf","inputs":[{"name":"account","type":"address","internalType":"address"}],"outputs":[{"name":"","type":"uint256","internalType":"uint256"}],"stateMutability":"view"},{"type":"function","name":"burn","inputs":[{"name":"value","type":"uint256","internalType":"uint256"}],"outputs":[],"stateMutability":"nonpayable"},{"type":"function","name":"decimals","inputs":[],"outputs":[{"name":"","type":"uint8","internalType":"uint8"}],"stateMutability":"pure"},{"type":"function","name":"name","inputs":[],"outputs":[{"name":"","type":"string","internalType":"string"}],"stateMutability":"view"},{"type":"function","name":"symbol","inputs":[],"outputs":[{"name":"","type":"string","internalType":"string"}],"stateMutability":"view"},{"type":"function","name":"totalSupply","inputs":[],"outputs":[{"name":"","type":"uint256","internalType":"uint256"}],"stateMutability":"view"},{"type":"function","name":"transfer","inputs":[{"name":"to","type":"address","internalType":"address"},{"name":"value","type":"uint256","internalType":"uint256"}],"outputs":[{"name":"","type":"bool","internalType":"bool"}],"stateMutability":"nonpayable"},{"type":"function","name":"transferFrom","inputs":[{"name":"from","type":"address","internalType":"address"},{"name":"to","type":"address","internalType":"address"},{"name":"value","type":"uint256","internalType":"uint256"}],"outputs":[{"name":"","type":"bool","internalType":"bool"}],"stateMutability":"nonpayable"},{"type":"event","name":"Approval","inputs":[{"name":"owner","type":"address","indexed":true,"internalType":"address"},{"name":"spender","type":"address","indexed":true,"internalType":"address"},{"name":"value","type":"uint256","indexed":false,"internalType":"uint256"}],"anonymous":false},{"type":"event","name":"Transfer","inputs":[{"name":"from","type":"address","indexed":true,"internalType":"address"},{"name":"to","type":"address","indexed":true,"internalType":"address"},{"name":"value","type":"uint256","indexed":false,"internalType":"uint256"}],"anonymous":false},{"type":"error","name":"ERC20InsufficientAllowance","inputs":[{"name":"spender","type":"address","internalType":"address"},{"name":"allowance","type":"uint256","internalType":"uint256"},{"name":"needed","type":"uint256","internalType":"uint256"}]},{"type":"error","name":"ERC20InsufficientBalance","inputs":[{"name":"sender","type":"address","internalType":"address"},{"name":"balance","type":"uint256","internalType":"uint256"},{"name":"needed","type":"uint256","internalType":"uint256"}]},{"type":"error","name":"ERC20InvalidApprover","inputs":[{"name":"approver","type":"address","internalType":"address"}]},{"type":"error","name":"ERC20InvalidReceiver","inputs":[{"name":"receiver","type":"address","internalType":"address"}]},{"type":"error","name":"ERC20InvalidSender","inputs":[{"name":"sender","type":"address","internalType":"address"}]},{"type":"error","name":"ERC20InvalidSpender","inputs":[{"name":"spender","type":"address","internalType":"address"}]}],"bytecode":{"object":"0x608060405234801561000f575f5ffd5b506040518060400160405280600b81526020017f4275676779546f6b656e380000000000000000000000000000000000000000008152505f90816100539190610439565b506040518060400160405280600481526020017f4255473800000000000000000000000000000000000000000000000000000000815250600190816100989190610439565b506100b33369d3c21bcecceda10000006100b860201b60201c565b6105e8565b5f73ffffffffffffffffffffffffffffffffffffffff168273ffffffffffffffffffffffffffffffffffffffff160361012857816040517fec442f0500000000000000000000000000000000000000000000000000000000815260040161011f9190610547565b60405180910390fd5b8060025f828254610139919061058d565b925050819055508060035f8473ffffffffffffffffffffffffffffffffffffffff1673ffffffffffffffffffffffffffffffffffffffff1681526020019081526020015f205f82825461018c919061058d565b925050819055508173ffffffffffffffffffffffffffffffffffffffff165f73ffffffffffffffffffffffffffffffffffffffff167fddf252ad1be2c89b69c2b068fc378daa952ba7f163c4a11628f55a4df523b3ef836040516101f091906105cf565b60405180910390a35050565b5f81519050919050565b7f4e487b71000000000000000000000000000000000000000000000000000000005f52604160045260245ffd5b7f4e487b71000000000000000000000000000000000000000000000000000000005f52602260045260245ffd5b5f600282049050600182168061027757607f821691505b60208210810361028a57610289610233565b5b50919050565b5f819050815f5260205f209050919050565b5f6020601f8301049050919050565b5f82821b905092915050565b5f600883026102ec7fffffffffffffffffffffffffffffffffffffffffffffffffffffffffffffffff826102b1565b6102f686836102b1565b95508019841693508086168417925050509392505050565b5f819050919050565b5f819050919050565b5f61033a6103356103308461030e565b610317565b61030e565b9050919050565b5f819050919050565b61035383610320565b61036761035f82610341565b8484546102bd565b825550505050565b5f5f905090565b61037e61036f565b61038981848461034a565b505050565b5b818110156103ac576103a15f82610376565b60018101905061038f565b5050565b601f8211156103f1576103c281610290565b6103cb846102a2565b810160208510156103da578190505b6103ee6103e6856102a2565b83018261038e565b50505b505050565b5f82821c905092915050565b5f6104115f19846008026103f6565b1980831691505092915050565b5f6104298383610402565b9150826002028217905092915050565b610442826101fc565b67ffffffffffffffff81111561045b5761045a610206565b5b6104658254610260565b6104708282856103b0565b5f60209050601f8311600181146104a1575f841561048f578287015190505b610499858261041e565b865550610500565b601f1984166104af86610290565b5f5b828110156104d6578489015182556001820191506020850194506020810190506104b1565b868310156104f357848901516104ef601f891682610402565b8355505b6001600288020188555050505b505050505050565b5f73ffffffffffffffffffffffffffffffffffffffff82169050919050565b5f61053182610508565b9050919050565b61054181610527565b82525050565b5f60208201905061055a5f830184610538565b92915050565b7f4e487b71000000000000000000000000000000000000000000000000000000005f52601160045260245ffd5b5f6105978261030e565b91506105a28361030e565b92508282019050808211156105ba576105b9610560565b5b92915050565b6105c98161030e565b82525050565b5f6020820190506105e25f8301846105c0565b92915050565b610ee5806105f55f395ff3fe608060405234801561000f575f5ffd5b506004361061009c575f3560e01c806342966c681161006457806342966c681461015a57806370a082311461017657806395d89b41146101a6578063a9059cbb146101c4578063dd62ed3e146101f45761009c565b806306fdde03146100a0578063095ea7b3146100be57806318160ddd146100ee57806323b872dd1461010c578063313ce5671461013c575b5f5ffd5b6100a8610224565b6040516100b59190610a72565b60405180910390f35b6100d860048036038101906100d39190610b23565b6102b3565b6040516100e59190610b7b565b60405180910390f35b6100f66102c9565b6040516101039190610ba3565b60405180910390f35b61012660048036038101906101219190610bbc565b6102d2565b6040516101339190610b7b565b60405180910390f35b6101446102f4565b6040516101519190610c27565b60405180910390f35b610174600480360381019061016f9190610c40565b6102fc565b005b610190600480360381019061018b9190610c6b565b6103b7565b60405161019d9190610ba3565b60405180910390f35b6101ae6103fd565b6040516101bb9190610a72565b60405180910390f35b6101de60048036038101906101d99190610b23565b61048d565b6040516101eb9190610b7b565b60405180910390f35b61020e60048036038101906102099190610c96565b6104a3565b60405161021b9190610ba3565b60405180910390f35b60605f805461023290610d01565b80601f016020809104026020016040519081016040528092919081815260200182805461025e90610d01565b80156102a95780601f10610280576101008083540402835291602001916102a9565b820191905f5260205f20905b81548152906001019060200180831161028c57829003601f168201915b5050505050905090565b5f6102bf338484610525565b6001905092915050565b5f600254905090565b5f6102de843384610687565b6102e984848461078d565b600190509392505050565b5f6012905090565b8060035f3373ffffffffffffffffffffffffffffffffffffffff1673ffffffffffffffffffffffffffffffffffffffff1681526020019081526020015f205f8282546103489190610d5e565b925050819055505f73ffffffffffffffffffffffffffffffffffffffff163373ffffffffffffffffffffffffffffffffffffffff167fddf252ad1be2c89b69c2b068fc378daa952ba7f163c4a11628f55a4df523b3ef836040516103ac9190610ba3565b60405180910390a350565b5f60035f8373ffffffffffffffffffffffffffffffffffffffff1673ffffffffffffffffffffffffffffffffffffffff1681526020019081526020015f20549050919050565b60606001805461040c90610d01565b80601f016020809104026020016040519081016040528092919081815260200182805461043890610d01565b80156104835780601f1061045a57610100808354040283529160200191610483565b820191905f5260205f20905b81548152906001019060200180831161046657829003601f168201915b5050505050905090565b5f61049933848461078d565b6001905092915050565b5f60045f8473ffffffffffffffffffffffffffffffffffffffff1673ffffffffffffffffffffffffffffffffffffffff1681526020019081526020015f205f8373ffffffffffffffffffffffffffffffffffffffff1673ffffffffffffffffffffffffffffffffffffffff1681526020019081526020015f2054905092915050565b5f73ffffffffffffffffffffffffffffffffffffffff168373ffffffffffffffffffffffffffffffffffffffff160361059557826040517fe602df0500000000000000000000000000000000000000000000000000000000815260040161058c9190610da0565b60405180910390fd5b5f73ffffffffffffffffffffffffffffffffffffffff168273ffffffffffffffffffffffffffffffffffffffff160361060557816040517f94280d620000000000000000000000000000000000000000000000000000000081526004016105fc9190610da0565b60405180910390fd5b8060045f8573ffffffffffffffffffffffffffffffffffffffff1673ffffffffffffffffffffffffffffffffffffffff1681526020019081526020015f205f8473ffffffffffffffffffffffffffffffffffffffff1673ffffffffffffffffffffffffffffffffffffffff1681526020019081526020015f2081905550505050565b5f61069284846104a3565b90507fffffffffffffffffffffffffffffffffffffffffffffffffffffffffffffffff811461078757818110156106fe576040517f08c379a00000000000000000000000000000000000000000000000000000000081526004016106f590610e29565b60405180910390fd5b818161070a9190610d5e565b60045f8673ffffffffffffffffffffffffffffffffffffffff1673ffffffffffffffffffffffffffffffffffffffff1681526020019081526020015f205f8573ffffffffffffffffffffffffffffffffffffffff1673ffffffffffffffffffffffffffffffffffffffff1681526020019081526020015f20819055505b50505050565b5f73ffffffffffffffffffffffffffffffffffffffff168373ffffffffffffffffffffffffffffffffffffffff16036107fd57826040517f96c6fd1e0000000000000000000000000000000000000000000000000000000081526004016107f49190610da0565b60405180910390fd5b5f73ffffffffffffffffffffffffffffffffffffffff168273ffffffffffffffffffffffffffffffffffffffff160361086d57816040517fec442f050000000000000000000000000000000000000000000000000000000081526004016108649190610da0565b60405180910390fd5b5f60035f8573ffffffffffffffffffffffffffffffffffffffff1673ffffffffffffffffffffffffffffffffffffffff1681526020019081526020015f20549050818110156108f7578381836040517fe450d38c0000000000000000000000000000000000000000000000000000000081526004016108ee93929190610e47565b60405180910390fd5b81816109039190610d5e565b60035f8673ffffffffffffffffffffffffffffffffffffffff1673ffffffffffffffffffffffffffffffffffffffff1681526020019081526020015f20819055508160035f8573ffffffffffffffffffffffffffffffffffffffff1673ffffffffffffffffffffffffffffffffffffffff1681526020019081526020015f205f8282546109909190610e7c565b925050819055508273ffffffffffffffffffffffffffffffffffffffff168473ffffffffffffffffffffffffffffffffffffffff167fddf252ad1be2c89b69c2b068fc378daa952ba7f163c4a11628f55a4df523b3ef846040516109f49190610ba3565b60405180910390a350505050565b5f81519050919050565b5f82825260208201905092915050565b8281835e5f83830152505050565b5f601f19601f8301169050919050565b5f610a4482610a02565b610a4e8185610a0c565b9350610a5e818560208601610a1c565b610a6781610a2a565b840191505092915050565b5f6020820190508181035f830152610a8a8184610a3a565b905092915050565b5f5ffd5b5f73ffffffffffffffffffffffffffffffffffffffff82169050919050565b5f610abf82610a96565b9050919050565b610acf81610ab5565b8114610ad9575f5ffd5b50565b5f81359050610aea81610ac6565b92915050565b5f819050919050565b610b0281610af0565b8114610b0c575f5ffd5b50565b5f81359050610b1d81610af9565b92915050565b5f5f60408385031215610b3957610b38610a92565b5b5f610b4685828601610adc565b9250506020610b5785828601610b0f565b9150509250929050565b5f8115159050919050565b610b7581610b61565b82525050565b5f602082019050610b8e5f830184610b6c565b92915050565b610b9d81610af0565b82525050565b5f602082019050610bb65f830184610b94565b92915050565b5f5f5f60608486031215610bd357610bd2610a92565b5b5f610be086828701610adc565b9350506020610bf186828701610adc565b9250506040610c0286828701610b0f565b9150509250925092565b5f60ff82169050919050565b610c2181610c0c565b82525050565b5f602082019050610c3a5f830184610c18565b92915050565b5f60208284031215610c5557610c54610a92565b5b5f610c6284828501610b0f565b91505092915050565b5f60208284031215610c8057610c7f610a92565b5b5f610c8d84828501610adc565b91505092915050565b5f5f60408385031215610cac57610cab610a92565b5b5f610cb985828601610adc565b9250506020610cca85828601610adc565b9150509250929050565b7f4e487b71000000000000000000000000000000000000000000000000000000005f52602260045260245ffd5b5f6002820490506001821680610d1857607f821691505b602082108103610d2b57610d2a610cd4565b5b50919050565b7f4e487b71000000000000000000000000000000000000000000000000000000005f52601160045260245ffd5b5f610d6882610af0565b9150610d7383610af0565b9250828203905081811115610d8b57610d8a610d31565b5b92915050565b610d9a81610ab5565b82525050565b5f602082019050610db35f830184610d91565b92915050565b7f4368616c6c656e676530383a20696e73756666696369656e7420616c6c6f77615f8201527f6e63650000000000000000000000000000000000000000000000000000000000602082015250565b5f610e13602383610a0c565b9150610e1e82610db9565b604082019050919050565b5f6020820190508181035f830152610e4081610e07565b9050919050565b5f606082019050610e5a5f830186610d91565b610e676020830185610b94565b610e746040830184610b94565b949350505050565b5f610e8682610af0565b9150610e9183610af0565b9250828201905080821115610ea957610ea8610d31565b5b9291505056fea2646970667358221220ce690ce57c73aabcaf2c8d1822227ef27c1fccbe3932b348fd88103d9d2c269364736f6c634300081c0033","linkReferences":{}},"methodIdentifiers":{"allowance(address,address)":"dd62ed3e","approve(address,uint256)":"095ea7b3","balanceOf(address)":"70a08231","burn(uint256)":"42966c68","decimals()":"313ce567","name()":"06fdde03","symbol()":"95d89b41","totalSupply()":"18160ddd","transfer(address,uint256)":"a9059cbb","transferFrom(address,address,uint256)":"23b872dd"},"id":25}