{"abi":[{"type":"constructor","inputs":[{"name":"_name","type":"string","internalType":"string"},{"name":"_symbol","type":"string","internalType":"string"},{"name":"_decimals","type":"uint8","internalType":"uint8"}],"stateMutability":"nonpayable"},{"type":"function","name":"allowance","inputs":[{"name":"","type":"address","internalType":"address"},{"name":"","type":"address","internalType":"address"}],"outputs":[{"name":"","type":"uint256","internalType":"uint256"}],"stateMutability":"view"},{"type":"function","name":"approve","inputs":[{"name":"owner","type":"address","internalType":"address"},{"name":"spender","type":"address","internalType":"address"},{"name":"amount","type":"uint256","internalType":"uint256"}],"outputs":[],"stateMutability":"nonpayable"},{"type":"function","name":"balanceOf","inputs":[{"name":"","type":"address","internalType":"address"}],"outputs":[{"name":"","type":"uint256","internalType":"uint256"}],"stateMutability":"view"},{"type":"function","name":"decimals","inputs":[],"outputs":[{"name":"","type":"uint8","internalType":"uint8"}],"stateMutability":"view"},{"type":"function","name":"name","inputs":[],"outputs":[{"name":"","type":"string","internalType":"string"}],"stateMutability":"view"},{"type":"function","name":"symbol","inputs":[],"outputs":[{"name":"","type":"string","internalType":"string"}],"stateMutability":"view"},{"type":"function","name":"totalSupply","inputs":[],"outputs":[{"name":"","type":"uint256","internalType":"uint256"}],"stateMutability":"view"},{"type":"function","name":"transfer","inputs":[{"name":"to","type":"address","internalType":"address"},{"name":"amount","type":"uint256","internalType":"uint256"}],"outputs":[{"name":"","type":"bool","internalType":"bool"}],"stateMutability":"nonpayable"},{"type":"function","name":"transferFrom","inputs":[{"name":"from","type":"address","internalType":"address"},{"name":"to","type":"address","internalType":"address"},{"name":"amount","type":"uint256","internalType":"uint256"}],"outputs":[{"name":"","type":"bool","internalType":"bool"}],"stateMutability":"nonpayable"},{"type":"event","name":"Approval","inputs":[{"name":"owner","type":"address","indexed":true,"internalType":"address"},{"name":"spender","type":"address","indexed":true,"internalType":"address"},{"name":"amount","type":"uint256","indexed":false,"internalType":"uint256"}],"anonymous":false},{"type":"event","name":"Transfer","inputs":[{"name":"from","type":"address","indexed":true,"internalType":"address"},{"name":"to","type":"address","indexed":true,"internalType":"address"},{"name":"amount","type":"uint256","indexed":false,"internalType":"uint256"}],"anonymous":false}],"bytecode":{"object":"0x60a060405234801561000f575f5ffd5b50604051611090380380611090833981810160405281019061003191906101e9565b825f908161003f9190610481565b50816001908161004f9190610481565b508060ff1660808160ff1681525050505050610550565b5f604051905090565b5f5ffd5b5f5ffd5b5f5ffd5b5f5ffd5b5f601f19601f8301169050919050565b7f4e487b71000000000000000000000000000000000000000000000000000000005f52604160045260245ffd5b6100c58261007f565b810181811067ffffffffffffffff821117156100e4576100e361008f565b5b80604052505050565b5f6100f6610066565b905061010282826100bc565b919050565b5f67ffffffffffffffff8211156101215761012061008f565b5b61012a8261007f565b9050602081019050919050565b8281835e5f83830152505050565b5f61015761015284610107565b6100ed565b9050828152602081018484840111156101735761017261007b565b5b61017e848285610137565b509392505050565b5f82601f83011261019a57610199610077565b5b81516101aa848260208601610145565b91505092915050565b5f60ff82169050919050565b6101c8816101b3565b81146101d2575f5ffd5b50565b5f815190506101e3816101bf565b92915050565b5f5f5f60608486031215610200576101ff61006f565b5b5f84015167ffffffffffffffff81111561021d5761021c610073565b5b61022986828701610186565b935050602084015167ffffffffffffffff81111561024a57610249610073565b5b61025686828701610186565b9250506040610267868287016101d5565b9150509250925092565b5f81519050919050565b7f4e487b71000000000000000000000000000000000000000000000000000000005f52602260045260245ffd5b5f60028204905060018216806102bf57607f821691505b6020821081036102d2576102d161027b565b5b50919050565b5f819050815f5260205f209050919050565b5f6020601f8301049050919050565b5f82821b905092915050565b5f600883026103347fffffffffffffffffffffffffffffffffffffffffffffffffffffffffffffffff826102f9565b61033e86836102f9565b95508019841693508086168417925050509392505050565b5f819050919050565b5f819050919050565b5f61038261037d61037884610356565b61035f565b610356565b9050919050565b5f819050919050565b61039b83610368565b6103af6103a782610389565b848454610305565b825550505050565b5f5f905090565b6103c66103b7565b6103d1818484610392565b505050565b5b818110156103f4576103e95f826103be565b6001810190506103d7565b5050565b601f8211156104395761040a816102d8565b610413846102ea565b81016020851015610422578190505b61043661042e856102ea565b8301826103d6565b50505b505050565b5f82821c905092915050565b5f6104595f198460080261043e565b1980831691505092915050565b5f610471838361044a565b9150826002028217905092915050565b61048a82610271565b67ffffffffffffffff8111156104a3576104a261008f565b5b6104ad82546102a8565b6104b88282856103f8565b5f60209050601f8311600181146104e9575f84156104d7578287015190505b6104e18582610466565b865550610548565b601f1984166104f7866102d8565b5f5b8281101561051e578489015182556001820191506020850194506020810190506104f9565b8683101561053b5784890151610537601f89168261044a565b8355505b6001600288020188555050505b505050505050565b608051610b286105685f395f6104b70152610b285ff3fe608060405234801561000f575f5ffd5b5060043610610091575f3560e01c806370a082311161006457806370a082311461011f57806395d89b411461014f578063a9059cbb1461016d578063dd62ed3e1461019d578063e1f21c67146101cd57610091565b806306fdde031461009557806318160ddd146100b357806323b872dd146100d1578063313ce56714610101575b5f5ffd5b61009d6101e9565b6040516100aa91906107fe565b60405180910390f35b6100bb610274565b6040516100c89190610836565b60405180910390f35b6100eb60048036038101906100e691906108d7565b61027a565b6040516100f89190610941565b60405180910390f35b6101096104b5565b6040516101169190610975565b60405180910390f35b6101396004803603810190610134919061098e565b6104d9565b6040516101469190610836565b60405180910390f35b6101576104ee565b60405161016491906107fe565b60405180910390f35b610187600480360381019061018291906109b9565b61057a565b6040516101949190610941565b60405180910390f35b6101b760048036038101906101b291906109f7565b610687565b6040516101c49190610836565b60405180910390f35b6101e760048036038101906101e291906108d7565b6106a7565b005b5f80546101f590610a62565b80601f016020809104026020016040519081016040528092919081815260200182805461022190610a62565b801561026c5780601f106102435761010080835404028352916020019161026c565b820191905f5260205f20905b81548152906001019060200180831161024f57829003601f168201915b505050505081565b60025481565b5f5f60045f8673ffffffffffffffffffffffffffffffffffffffff1673ffffffffffffffffffffffffffffffffffffffff1681526020019081526020015f205f3373ffffffffffffffffffffffffffffffffffffffff1673ffffffffffffffffffffffffffffffffffffffff1681526020019081526020015f205490507fffffffffffffffffffffffffffffffffffffffffffffffffffffffffffffffff81146103a757828161032a9190610abf565b60045f8773ffffffffffffffffffffffffffffffffffffffff1673ffffffffffffffffffffffffffffffffffffffff1681526020019081526020015f205f3373ffffffffffffffffffffffffffffffffffffffff1673ffffffffffffffffffffffffffffffffffffffff1681526020019081526020015f20819055505b8260035f8773ffffffffffffffffffffffffffffffffffffffff1673ffffffffffffffffffffffffffffffffffffffff1681526020019081526020015f205f8282546103f39190610abf565b925050819055508260035f8673ffffffffffffffffffffffffffffffffffffffff1673ffffffffffffffffffffffffffffffffffffffff1681526020019081526020015f205f82825401925050819055508373ffffffffffffffffffffffffffffffffffffffff168573ffffffffffffffffffffffffffffffffffffffff167fddf252ad1be2c89b69c2b068fc378daa952ba7f163c4a11628f55a4df523b3ef856040516104a19190610836565b60405180910390a360019150509392505050565b7f000000000000000000000000000000000000000000000000000000000000000081565b6003602052805f5260405f205f915090505481565b600180546104fb90610a62565b80601f016020809104026020016040519081016040528092919081815260200182805461052790610a62565b80156105725780601f1061054957610100808354040283529160200191610572565b820191905f5260205f20905b81548152906001019060200180831161055557829003601f168201915b505050505081565b5f8160035f3373ffffffffffffffffffffffffffffffffffffffff1673ffffffffffffffffffffffffffffffffffffffff1681526020019081526020015f205f8282546105c79190610abf565b925050819055508160035f8573ffffffffffffffffffffffffffffffffffffffff1673ffffffffffffffffffffffffffffffffffffffff1681526020019081526020015f205f82825401925050819055508273ffffffffffffffffffffffffffffffffffffffff163373ffffffffffffffffffffffffffffffffffffffff167fddf252ad1be2c89b69c2b068fc378daa952ba7f163c4a11628f55a4df523b3ef846040516106759190610836565b60405180910390a36001905092915050565b6004602052815f5260405f20602052805f5260405f205f91509150505481565b8060045f8573ffffffffffffffffffffffffffffffffffffffff1673ffffffffffffffffffffffffffffffffffffffff1681526020019081526020015f205f8473ffffffffffffffffffffffffffffffffffffffff1673ffffffffffffffffffffffffffffffffffffffff1681526020019081526020015f20819055508173ffffffffffffffffffffffffffffffffffffffff168373ffffffffffffffffffffffffffffffffffffffff167f8c5be1e5ebec7d5bd14f71427d1e84f3dd0314c0f7b2291e5b200ac8c7c3b925836040516107819190610836565b60405180910390a3505050565b5f81519050919050565b5f82825260208201905092915050565b8281835e5f83830152505050565b5f601f19601f8301169050919050565b5f6107d08261078e565b6107da8185610798565b93506107ea8185602086016107a8565b6107f3816107b6565b840191505092915050565b5f6020820190508181035f83015261081681846107c6565b905092915050565b5f819050919050565b6108308161081e565b82525050565b5f6020820190506108495f830184610827565b92915050565b5f5ffd5b5f73ffffffffffffffffffffffffffffffffffffffff82169050919050565b5f61087c82610853565b9050919050565b61088c81610872565b8114610896575f5ffd5b50565b5f813590506108a781610883565b92915050565b6108b68161081e565b81146108c0575f5ffd5b50565b5f813590506108d1816108ad565b92915050565b5f5f5f606084860312156108ee576108ed61084f565b5b5f6108fb86828701610899565b935050602061090c86828701610899565b925050604061091d868287016108c3565b9150509250925092565b5f8115159050919050565b61093b81610927565b82525050565b5f6020820190506109545f830184610932565b92915050565b5f60ff82169050919050565b61096f8161095a565b82525050565b5f6020820190506109885f830184610966565b92915050565b5f602082840312156109a3576109a261084f565b5b5f6109b084828501610899565b91505092915050565b5f5f604083850312156109cf576109ce61084f565b5b5f6109dc85828601610899565b92505060206109ed858286016108c3565b9150509250929050565b5f5f60408385031215610a0d57610a0c61084f565b5b5f610a1a85828601610899565b9250506020610a2b85828601610899565b9150509250929050565b7f4e487b71000000000000000000000000000000000000000000000000000000005f52602260045260245ffd5b5f6002820490506001821680610a7957607f821691505b602082108103610a8c57610a8b610a35565b5b50919050565b7f4e487b71000000000000000000000000000000000000000000000000000000005f52601160045260245ffd5b5f610ac98261081e565b9150610ad48361081e565b9250828203905081811115610aec57610aeb610a92565b5b9291505056fea26469706673582212209aaa0c13de68b000aa5613effdcf585bea5b77a8d903d8a49eac3e56b5eba40564736f6c634300081c0033","linkReferences":{}},"methodIdentifiers":{"allowance(address,address)":"dd62ed3e","approve(address,address,uint256)":"e1f21c67","balanceOf(address)":"70a08231","decimals()":"313ce567","name()":"06fdde03","symbol()":"95d89b41","totalSupply()":"18160ddd","transfer(address,uint256)":"a9059cbb","transferFrom(address,address,uint256)":"23b872dd"},"id":19}